{
  "contractName": "AuctionModule",
  "contractAddress": "0xCf7Ed3AccA5a467e9e704C703E8D87F634fB0Fc9",
  "abi": [
    {
      "inputs": [
        {
          "internalType": "address",
          "name": "_tokenAddress",
          "type": "address"
        },
        {
          "internalType": "uint256",
          "name": "_totalAuctionAmount",
          "type": "uint256"
        },
        {
          "internalType": "uint256",
          "name": "_initialAuctionPrice",
          "type": "uint256"
        },
        {
          "internalType": "uint256",
          "name": "_timeToEmitAll",
          "type": "uint256"
        }
      ],
      "stateMutability": "nonpayable",
      "type": "constructor"
    },
    {
      "inputs": [],
      "name": "InsufficientAvailableTokens",
      "type": "error"
    },
    {
      "inputs": [],
      "name": "InsufficientPayment",
      "type": "error"
    },
    {
      "inputs": [
        {
          "internalType": "uint256",
          "name": "x",
          "type": "uint256"
        },
        {
          "internalType": "uint256",
          "name": "y",
          "type": "uint256"
        }
      ],
      "name": "PRBMath_MulDiv18_Overflow",
      "type": "error"
    },
    {
      "inputs": [
        {
          "internalType": "uint256",
          "name": "x",
          "type": "uint256"
        },
        {
          "internalType": "uint256",
          "name": "y",
          "type": "uint256"
        },
        {
          "internalType": "uint256",
          "name": "denominator",
          "type": "uint256"
        }
      ],
      "name": "PRBMath_MulDiv_Overflow",
      "type": "error"
    },
    {
      "inputs": [],
      "name": "PRBMath_SD59x18_Div_InputTooSmall",
      "type": "error"
    },
    {
      "inputs": [
        {
          "internalType": "SD59x18",
          "name": "x",
          "type": "int256"
        },
        {
          "internalType": "SD59x18",
          "name": "y",
          "type": "int256"
        }
      ],
      "name": "PRBMath_SD59x18_Div_Overflow",
      "type": "error"
    },
    {
      "inputs": [
        {
          "internalType": "SD59x18",
          "name": "x",
          "type": "int256"
        }
      ],
      "name": "PRBMath_SD59x18_Exp2_InputTooBig",
      "type": "error"
    },
    {
      "inputs": [
        {
          "internalType": "SD59x18",
          "name": "x",
          "type": "int256"
        }
      ],
      "name": "PRBMath_SD59x18_Exp_InputTooBig",
      "type": "error"
    },
    {
      "inputs": [
        {
          "internalType": "SD59x18",
          "name": "x",
          "type": "int256"
        }
      ],
      "name": "PRBMath_SD59x18_Log_InputTooSmall",
      "type": "error"
    },
    {
      "inputs": [],
      "name": "PRBMath_SD59x18_Mul_InputTooSmall",
      "type": "error"
    },
    {
      "inputs": [
        {
          "internalType": "SD59x18",
          "name": "x",
          "type": "int256"
        },
        {
          "internalType": "SD59x18",
          "name": "y",
          "type": "int256"
        }
      ],
      "name": "PRBMath_SD59x18_Mul_Overflow",
      "type": "error"
    },
    {
      "inputs": [],
      "name": "UnableToRefund",
      "type": "error"
    },
    {
      "anonymous": false,
      "inputs": [
        {
          "indexed": true,
          "internalType": "address",
          "name": "previousOwner",
          "type": "address"
        },
        {
          "indexed": true,
          "internalType": "address",
          "name": "newOwner",
          "type": "address"
        }
      ],
      "name": "OwnershipTransferred",
      "type": "event"
    },
    {
      "inputs": [],
      "name": "criticalAmount",
      "outputs": [
        {
          "internalType": "uint256",
          "name": "",
          "type": "uint256"
        }
      ],
      "stateMutability": "view",
      "type": "function"
    },
    {
      "inputs": [],
      "name": "criticalTime",
      "outputs": [
        {
          "internalType": "uint256",
          "name": "",
          "type": "uint256"
        }
      ],
      "stateMutability": "view",
      "type": "function"
    },
    {
      "inputs": [],
      "name": "decayConstant",
      "outputs": [
        {
          "internalType": "uint256",
          "name": "",
          "type": "uint256"
        }
      ],
      "stateMutability": "view",
      "type": "function"
    },
    {
      "inputs": [],
      "name": "depositInitialReserves",
      "outputs": [],
      "stateMutability": "nonpayable",
      "type": "function"
    },
    {
      "inputs": [
        {
          "internalType": "uint256",
          "name": "additionalAuctionAmount",
          "type": "uint256"
        },
        {
          "internalType": "uint256",
          "name": "extraTime",
          "type": "uint256"
        }
      ],
      "name": "depositMoreForAuctioning",
      "outputs": [
        {
          "internalType": "bool",
          "name": "",
          "type": "bool"
        }
      ],
      "stateMutability": "nonpayable",
      "type": "function"
    },
    {
      "inputs": [],
      "name": "emissionRate",
      "outputs": [
        {
          "internalType": "uint256",
          "name": "",
          "type": "uint256"
        }
      ],
      "stateMutability": "view",
      "type": "function"
    },
    {
      "inputs": [],
      "name": "halflife",
      "outputs": [
        {
          "internalType": "uint256",
          "name": "",
          "type": "uint256"
        }
      ],
      "stateMutability": "view",
      "type": "function"
    },
    {
      "inputs": [],
      "name": "initialAuctionPrice",
      "outputs": [
        {
          "internalType": "int256",
          "name": "",
          "type": "int256"
        }
      ],
      "stateMutability": "view",
      "type": "function"
    },
    {
      "inputs": [],
      "name": "lastAvailableAuctionStartTime",
      "outputs": [
        {
          "internalType": "int256",
          "name": "",
          "type": "int256"
        }
      ],
      "stateMutability": "view",
      "type": "function"
    },
    {
      "inputs": [],
      "name": "limit",
      "outputs": [
        {
          "internalType": "int256",
          "name": "",
          "type": "int256"
        }
      ],
      "stateMutability": "view",
      "type": "function"
    },
    {
      "inputs": [],
      "name": "owner",
      "outputs": [
        {
          "internalType": "address",
          "name": "",
          "type": "address"
        }
      ],
      "stateMutability": "view",
      "type": "function"
    },
    {
      "inputs": [
        {
          "internalType": "uint256",
          "name": "numTokens",
          "type": "uint256"
        }
      ],
      "name": "purchasePrice",
      "outputs": [
        {
          "internalType": "uint256",
          "name": "",
          "type": "uint256"
        }
      ],
      "stateMutability": "view",
      "type": "function"
    },
    {
      "inputs": [
        {
          "internalType": "uint256",
          "name": "numTokens",
          "type": "uint256"
        },
        {
          "internalType": "address",
          "name": "to",
          "type": "address"
        }
      ],
      "name": "purchaseTokens",
      "outputs": [],
      "stateMutability": "payable",
      "type": "function"
    },
    {
      "inputs": [],
      "name": "renounceOwnership",
      "outputs": [],
      "stateMutability": "nonpayable",
      "type": "function"
    },
    {
      "inputs": [
        {
          "internalType": "address",
          "name": "tokenContract",
          "type": "address"
        },
        {
          "internalType": "address",
          "name": "to",
          "type": "address"
        },
        {
          "internalType": "uint256",
          "name": "amount",
          "type": "uint256"
        }
      ],
      "name": "rescueERC20",
      "outputs": [],
      "stateMutability": "nonpayable",
      "type": "function"
    },
    {
      "inputs": [],
      "name": "sd59x18_decimals",
      "outputs": [
        {
          "internalType": "int256",
          "name": "",
          "type": "int256"
        }
      ],
      "stateMutability": "view",
      "type": "function"
    },
    {
      "inputs": [],
      "name": "startTime",
      "outputs": [
        {
          "internalType": "int256",
          "name": "",
          "type": "int256"
        }
      ],
      "stateMutability": "view",
      "type": "function"
    },
    {
      "inputs": [],
      "name": "timeToEmitAll",
      "outputs": [
        {
          "internalType": "int256",
          "name": "",
          "type": "int256"
        }
      ],
      "stateMutability": "view",
      "type": "function"
    },
    {
      "inputs": [],
      "name": "token",
      "outputs": [
        {
          "internalType": "contract IERC20",
          "name": "",
          "type": "address"
        }
      ],
      "stateMutability": "view",
      "type": "function"
    },
    {
      "inputs": [],
      "name": "tokenAddress",
      "outputs": [
        {
          "internalType": "address",
          "name": "",
          "type": "address"
        }
      ],
      "stateMutability": "view",
      "type": "function"
    },
    {
      "inputs": [],
      "name": "totalAmountSold",
      "outputs": [
        {
          "internalType": "uint256",
          "name": "",
          "type": "uint256"
        }
      ],
      "stateMutability": "view",
      "type": "function"
    },
    {
      "inputs": [],
      "name": "totalAuctionAmount",
      "outputs": [
        {
          "internalType": "uint256",
          "name": "",
          "type": "uint256"
        }
      ],
      "stateMutability": "view",
      "type": "function"
    },
    {
      "inputs": [
        {
          "internalType": "address",
          "name": "newOwner",
          "type": "address"
        }
      ],
      "name": "transferOwnership",
      "outputs": [],
      "stateMutability": "nonpayable",
      "type": "function"
    },
    {
      "inputs": [
        {
          "internalType": "uint256",
          "name": "amount",
          "type": "uint256"
        }
      ],
      "name": "withdrawReserves",
      "outputs": [],
      "stateMutability": "nonpayable",
      "type": "function"
    }
  ],
  "bytecode": {
    "object": "0x6080604052680736ea4425c11ac631600555670de0b6b3a76400006007553480156200002a57600080fd5b5060405162001ee238038062001ee28339810160408190526200004d91620000ee565b62000058336200009e565b600280546001600160a01b039095166001600160a01b031995861681179091556001805490951617909355600391909155600655426008819055600955600a556200013b565b600080546001600160a01b038381166001600160a01b0319831681178455604051919092169283917f8be0079c531659141344cd1fd0a4f28419497f9722a3daafe3b4186f6b6457e09190a35050565b600080600080608085870312156200010557600080fd5b84516001600160a01b03811681146200011d57600080fd5b60208601516040870151606090970151919890975090945092505050565b611d97806200014b6000396000f3fe60806040526004361061014b5760003560e01c80638da5cb5b116100b6578063b7e9659e1161006f578063b7e9659e14610346578063d2a9e77d1461035c578063d46bfc1214610371578063f2fde38b14610387578063f8bbad80146103a7578063fc0c546a146103bd57600080fd5b80638da5cb5b1461028957806396afc450146102bb57806398aa8c33146102d05780639d76ea58146102f0578063a4d66daf14610310578063b2118a8d1461032657600080fd5b8063504cceac11610108578063504cceac146101ff578063715018a61461021257806377445ba61461022757806377fbc4ae1461023d57806378e979251461025d578063812946741461027357600080fd5b80630c56a7a7146101505780630f50da9c14610167578063227f20181461019c57806330427ddf146101bf5780633c84186d146101d45780634ca2d2e8146101ea575b600080fd5b34801561015c57600080fd5b506101656103dd565b005b34801561017357600080fd5b50610187610182366004611aed565b610483565b60405190151581526020015b60405180910390f35b3480156101a857600080fd5b506101b1610563565b604051908152602001610193565b3480156101cb57600080fd5b506101b1610578565b3480156101e057600080fd5b506101b1600a5481565b3480156101f657600080fd5b506101b1610593565b61016561020d366004611b2b565b6105a1565b34801561021e57600080fd5b50610165610745565b34801561023357600080fd5b506101b160045481565b34801561024957600080fd5b506101b1610258366004611b57565b610759565b34801561026957600080fd5b506101b160095481565b34801561027f57600080fd5b506101b160085481565b34801561029557600080fd5b506000546001600160a01b03165b6040516001600160a01b039091168152602001610193565b3480156102c757600080fd5b506101b1610892565b3480156102dc57600080fd5b506101656102eb366004611b57565b6108a3565b3480156102fc57600080fd5b506002546102a3906001600160a01b031681565b34801561031c57600080fd5b506101b160055481565b34801561033257600080fd5b50610165610341366004611b70565b610943565b34801561035257600080fd5b506101b160035481565b34801561036857600080fd5b506101b16109c4565b34801561037d57600080fd5b506101b160075481565b34801561039357600080fd5b506101656103a2366004611bac565b6109d1565b3480156103b357600080fd5b506101b160065481565b3480156103c957600080fd5b506001546102a3906001600160a01b031681565b6103e5610a47565b6001546001600160a01b03166323b872dd6104086000546001600160a01b031690565b6003546040516001600160e01b031960e085901b1681526001600160a01b03909216600483015230602483015260448201526064016020604051808303816000875af115801561045c573d6000803e3d6000fd5b505050506040513d601f19601f820116820180604052508101906104809190611bc7565b50565b600061048d610a47565b6001546001600160a01b03166323b872dd6104b06000546001600160a01b031690565b6040516001600160e01b031960e084901b1681526001600160a01b039091166004820152306024820152604481018690526064016020604051808303816000875af1158015610503573d6000803e3d6000fd5b505050506040513d601f19601f820116820180604052508101906105279190611bc7565b50826003600082825461053a9190611bff565b9250508190555081600a60008282546105539190611c12565b9091555060019150505b92915050565b6000610573610570610aa1565b90565b905090565b600080600754610589610570610acf565b61055d9190611c50565b60008061055d610570610ae5565b600354826004546105b29190611bff565b1061060f5760405162461bcd60e51b815260206004820152602260248201527f457863656564696e672074686520746f74616c2061756374696f6e20616d6f756044820152611b9d60f21b60648201526084015b60405180910390fd5b60006008544261061f9190611c7e565b90506000610639610570610631610b10565b865b90610b3b565b90508181131561065c576040516378ef060160e01b815260040160405180910390fd5b600061066785610759565b90508034101561068a5760405163cd1c886760e01b815260040160405180910390fd5b6106948486610c11565b81600860008282546106a69190611c12565b90915550600090506106b88234611ca5565b604051909150600090339083908381818185875af1925050503d80600081146106fd576040519150601f19603f3d011682016040523d82523d6000602084013e610702565b606091505b5050905086600460008282546107189190611bff565b9091555081905061073c576040516363afd20960e01b815260040160405180910390fd5b50505050505050565b61074d610a47565b6107576000610c8d565b565b60008060045460035461076c9190611ca5565b9050601e6003548260646107809190611cb8565b61078a9190611ccf565b1180156107ac5750600a816107a0856064611cb8565b6107aa9190611ccf565b115b156107c25750683635c9adc5dea0000092915050565b60006107d5600754856105709190611ce3565b905060006107ec6007546006546105709190611ce3565b905060006107f8610ae5565b90506000610804610b10565b905060006108266007546008544261081c9190611c7e565b6105709190611ce3565b905060006108348585610b3b565b90506000610843878587610cdd565b905060006108518487610dcd565b90506000610869846108638585610b3b565b90610e0d565b905060006007546108778390565b6108819190611c50565b9d9c50505050505050505050505050565b600080600754610589610570610b10565b6108ab610a47565b6001546001600160a01b031663a9059cbb6108ce6000546001600160a01b031690565b6040516001600160e01b031960e084901b1681526001600160a01b039091166004820152602481018490526044016020604051808303816000875af115801561091b573d6000803e3d6000fd5b505050506040513d601f19601f8201168201806040525081019061093f9190611bc7565b5050565b61094b610a47565b60405163a9059cbb60e01b81526001600160a01b0383811660048301526024820183905284169063a9059cbb906044016020604051808303816000875af115801561099a573d6000803e3d6000fd5b505050506040513d601f19601f820116820180604052508101906109be9190611bc7565b50505050565b6000610573610570610eb1565b6109d9610a47565b6001600160a01b038116610a3e5760405162461bcd60e51b815260206004820152602660248201527f4f776e61626c653a206e6577206f776e657220697320746865207a65726f206160448201526564647265737360d01b6064820152608401610606565b61048081610c8d565b6000546001600160a01b031633146107575760405162461bcd60e51b815260206004820181905260248201527f4f776e61626c653a2063616c6c6572206973206e6f7420746865206f776e65726044820152606401610606565b600080610aac610ae5565b90506000610ab960055490565b90506000610ac78284610b3b565b949350505050565b6000610573600754620151806105709190611ce3565b600080610af0610acf565b90506000610b0982610633671bc16d674ec80000610ee7565b9392505050565b6000610573610b28600754600a546105709190611ce3565b6106336007546003546105709190611ce3565b60008282600160ff1b821480610b545750600160ff1b81145b15610b72576040516309fe2b4560e41b815260040160405180910390fd5b60008060008412610b835783610b88565b836000035b915060008312610b985782610b9d565b826000035b90506000610bb483670de0b6b3a764000084610f1e565b90506001600160ff1b03811115610be85760405163d49c26b360e01b81526004810189905260248101889052604401610606565b60001985851813610c0481610c005782600003610570565b8290565b9998505050505050505050565b60015460405163a9059cbb60e01b81526001600160a01b038481166004830152602482018490529091169063a9059cbb906044016020604051808303816000875af1158015610c64573d6000803e3d6000fd5b505050506040513d601f19601f82011682018060405250810190610c889190611bc7565b505050565b600080546001600160a01b038381166001600160a01b0319831681178455604051919092169283917f8be0079c531659141344cd1fd0a4f28419497f9722a3daafe3b4186f6b6457e09190a35050565b600080610ce8610eb1565b905084811215610d3557610d306040518060400160405280601b81526020017f5f7175616e74697479203e205f637269746963616c416d6f756e740000000000815250610ff2565b610d73565b610d736040518060400160405280601b81526020017f5f7175616e74697479203c205f637269746963616c416d6f756e740000000000815250610ff2565b6000858212610db157610dac610d95610d9087610633888b610e0d565b611035565b610da760075460016105709190611ce3565b61108a565b610dc3565b610dc3610d95610d90610d9560055490565b9695505050505050565b600080610dd8610aa1565b90506000848212610df557610df0610d908587610e0d565b610e04565b610e04610d90610d9560055490565b95945050505050565b60008282600160ff1b821480610e265750600160ff1b81145b15610e445760405163a6070c2560e01b815260040160405180910390fd5b60008060008412610e555783610e5a565b836000035b915060008312610e6a5782610e6f565b826000035b90506000610e7d8383611099565b90506001600160ff1b03811115610be85760405163120b5b4360e01b81526004810189905260248101889052604401610606565b600080610ebc610ae5565b90506000610ec960055490565b90506000610ed5610b10565b90506000610e04846106338585610e0d565b600061055d6714057b7ef767814f670de0b6b3a7640000610f0a6105708661114f565b610f149190611ce3565b6105709190611c50565b6000808060001985870985870292508281108382030391505080600003610f5857838281610f4e57610f4e611c3a565b0492505050610b09565b838110610f8957604051630c740aef60e31b8152600481018790526024810186905260448101859052606401610606565b60008486880960026001871981018816978890046003810283188082028403028082028403028082028403028082028403028082028403029081029092039091026000889003889004909101858311909403939093029303949094049190911702949350505050565b610480816040516024016110069190611d13565b60408051601f198184030181529190526020810180516001600160e01b031663104c13eb60e21b1790526112c2565b600081680736ea4425c11ac6308113156110655760405163ca7ec0c560e01b815260048101849052602401610606565b6714057b7ef767814f8102610ac7611085670de0b6b3a7640000835b0590565b6112e3565b6000610b096105708385611c7e565b60008080600019848609848602925082811083820303915050806000036110cd5750670de0b6b3a76400009004905061055d565b670de0b6b3a764000081106110ff57604051635173648d60e01b81526004810186905260248101859052604401610606565b6000670de0b6b3a764000085870962040000818503049310909103600160ee1b02919091177faccb18165bd6fe31ae1cf318dc5b51eee0e1ba569b88cd74c1773b91fac106690291505092915050565b6000818181136111755760405163059b101b60e01b815260048101849052602401610606565b6000670de0b6b3a7640000821261118e575060016111b4565b50600019816ec097ce7bc90715b34b9f1000000000816111b0576111b0611c3a565b0591505b6000611240670de0b6b3a7640000840560016fffffffffffffffffffffffffffffffff821160071b91821c67ffffffffffffffff811160061b90811c63ffffffff811160051b90811c61ffff811160041b90811c60ff8111600390811b91821c600f811160021b90811c918211871b91821c969096119490961792909217171791909117919091171790565b9050670de0b6b3a7640000810283821d670de0b6b3a763ffff19810161126d575091909102949350505050565b671bc16d674ec800006706f05b59d3b200005b60008113156112b357670de0b6b3a76400008380020592508183126112ab579283019260019290921d915b60011d611280565b50505091909102949350505050565b80516a636f6e736f6c652e6c6f67602083016000808483855afa5050505050565b600081818112156113405768033dd1780914b97114198112156113095750600092915050565b61133961131c6105706110858460000390565b6ec097ce7bc90715b34b9f10000000008161108157611081611c3a565b9150611387565b680a688906bd8affffff81131561136c57604051626c1a0560e31b815260048101849052602401610606565b670de0b6b3a7640000604082901b05610ac76105708261138d565b50919050565b600160bf1b67ff0000000000000082161561149a576780000000000000008216156113c15768016a09e667f3bcc9090260401c5b6740000000000000008216156113e0576801306fe0a31b7152df0260401c5b6720000000000000008216156113ff576801172b83c7d517adce0260401c5b67100000000000000082161561141e5768010b5586cf9890f62a0260401c5b67080000000000000082161561143d576801059b0d31585743ae0260401c5b67040000000000000082161561145c57680102c9a3e778060ee70260401c5b67020000000000000082161561147b5768010163da9fb33356d80260401c5b67010000000000000082161561149a57680100b1afa5abcbed610260401c5b66ff0000000000008216156115995766800000000000008216156114c75768010058c86da1c09ea20260401c5b66400000000000008216156114e5576801002c605e2e8cec500260401c5b662000000000000082161561150357680100162f3904051fa10260401c5b6610000000000000821615611521576801000b175effdc76ba0260401c5b660800000000000082161561153f57680100058ba01fb9f96d0260401c5b660400000000000082161561155d5768010002c5cc37da94920260401c5b660200000000000082161561157b576801000162e525ee05470260401c5b66010000000000008216156115995768010000b17255775c040260401c5b65ff000000000082161561168f57658000000000008216156115c4576801000058b91b5bc9ae0260401c5b654000000000008216156115e157680100002c5c89d5ec6d0260401c5b652000000000008216156115fe5768010000162e43f4f8310260401c5b6510000000000082161561161b57680100000b1721bcfc9a0260401c5b650800000000008216156116385768010000058b90cf1e6e0260401c5b65040000000000821615611655576801000002c5c863b73f0260401c5b6502000000000082161561167257680100000162e430e5a20260401c5b6501000000000082161561168f576801000000b1721835510260401c5b64ff0000000082161561177c576480000000008216156116b857680100000058b90c0b490260401c5b6440000000008216156116d45768010000002c5c8601cc0260401c5b6420000000008216156116f0576801000000162e42fff00260401c5b64100000000082161561170c5768010000000b17217fbb0260401c5b640800000000821615611728576801000000058b90bfce0260401c5b64040000000082161561174457680100000002c5c85fe30260401c5b6402000000008216156117605768010000000162e42ff10260401c5b64010000000082161561177c57680100000000b17217f80260401c5b63ff0000008216156118605763800000008216156117a35768010000000058b90bfc0260401c5b63400000008216156117be576801000000002c5c85fe0260401c5b63200000008216156117d957680100000000162e42ff0260401c5b63100000008216156117f4576801000000000b17217f0260401c5b630800000082161561180f57680100000000058b90c00260401c5b630400000082161561182a5768010000000002c5c8600260401c5b6302000000821615611845576801000000000162e4300260401c5b63010000008216156118605768010000000000b172180260401c5b62ff000082161561193b5762800000821615611885576801000000000058b90c0260401c5b6240000082161561189f57680100000000002c5c860260401c5b622000008216156118b95768010000000000162e430260401c5b621000008216156118d357680100000000000b17210260401c5b620800008216156118ed5768010000000000058b910260401c5b62040000821615611907576801000000000002c5c80260401c5b6202000082161561192157680100000000000162e40260401c5b6201000082161561193b576801000000000000b1720260401c5b61ff00821615611a0d5761800082161561195e57680100000000000058b90260401c5b6140008216156119775768010000000000002c5d0260401c5b612000821615611990576801000000000000162e0260401c5b6110008216156119a95768010000000000000b170260401c5b6108008216156119c2576801000000000000058c0260401c5b6104008216156119db57680100000000000002c60260401c5b6102008216156119f457680100000000000001630260401c5b610100821615611a0d57680100000000000000b10260401c5b60ff821615611ad6576080821615611a2e57680100000000000000590260401c5b6040821615611a46576801000000000000002c0260401c5b6020821615611a5e57680100000000000000160260401c5b6010821615611a76576801000000000000000b0260401c5b6008821615611a8e57680100000000000000060260401c5b6004821615611aa657680100000000000000030260401c5b6002821615611abe57680100000000000000010260401c5b6001821615611ad657680100000000000000010260401c5b670de0b6b3a76400000260409190911c60bf031c90565b60008060408385031215611b0057600080fd5b50508035926020909101359150565b80356001600160a01b0381168114611b2657600080fd5b919050565b60008060408385031215611b3e57600080fd5b82359150611b4e60208401611b0f565b90509250929050565b600060208284031215611b6957600080fd5b5035919050565b600080600060608486031215611b8557600080fd5b611b8e84611b0f565b9250611b9c60208501611b0f565b9150604084013590509250925092565b600060208284031215611bbe57600080fd5b610b0982611b0f565b600060208284031215611bd957600080fd5b81518015158114610b0957600080fd5b634e487b7160e01b600052601160045260246000fd5b8082018082111561055d5761055d611be9565b8082018281126000831280158216821582161715611c3257611c32611be9565b505092915050565b634e487b7160e01b600052601260045260246000fd5b600082611c5f57611c5f611c3a565b600160ff1b821460001984141615611c7957611c79611be9565b500590565b8181036000831280158383131683831282161715611c9e57611c9e611be9565b5092915050565b8181038181111561055d5761055d611be9565b808202811582820484141761055d5761055d611be9565b600082611cde57611cde611c3a565b500490565b80820260008212600160ff1b84141615611cff57611cff611be9565b818105831482151761055d5761055d611be9565b600060208083528351808285015260005b81811015611d4057858101830151858201604001528201611d24565b506000604082860101526040601f19601f830116850101925050509291505056fea2646970667358221220f68a1877871de24a7c2ebb612ffa4c7645db81064de107ada66c27e639e50fd264736f6c63430008130033",
    "linkReferences": {}
  },
  "methodIdentifiers": {
    "criticalAmount()": "d2a9e77d",
    "criticalTime()": "227f2018",
    "decayConstant()": "4ca2d2e8",
    "depositInitialReserves()": "0c56a7a7",
    "depositMoreForAuctioning(uint256,uint256)": "0f50da9c",
    "emissionRate()": "96afc450",
    "halflife()": "30427ddf",
    "initialAuctionPrice()": "f8bbad80",
    "lastAvailableAuctionStartTime()": "81294674",
    "limit()": "a4d66daf",
    "owner()": "8da5cb5b",
    "purchasePrice(uint256)": "77fbc4ae",
    "purchaseTokens(uint256,address)": "504cceac",
    "renounceOwnership()": "715018a6",
    "rescueERC20(address,address,uint256)": "b2118a8d",
    "sd59x18_decimals()": "d46bfc12",
    "startTime()": "78e97925",
    "timeToEmitAll()": "3c84186d",
    "token()": "fc0c546a",
    "tokenAddress()": "9d76ea58",
    "totalAmountSold()": "77445ba6",
    "totalAuctionAmount()": "b7e9659e",
    "transferOwnership(address)": "f2fde38b",
    "withdrawReserves(uint256)": "98aa8c33"
  },
  "id": 63
}