{
  "contractName": "Zi",
  "contractAddress": "0x5FbDB2315678afecb367f032d93F642f64180aa3",
  "abi": [
    {
      "inputs": [
        {
          "internalType": "uint256",
          "name": "_initialSupply",
          "type": "uint256"
        },
        {
          "internalType": "uint256",
          "name": "_supplyLimit",
          "type": "uint256"
        }
      ],
      "stateMutability": "nonpayable",
      "type": "constructor"
    },
    {
      "anonymous": false,
      "inputs": [
        {
          "indexed": true,
          "internalType": "address",
          "name": "owner",
          "type": "address"
        },
        {
          "indexed": true,
          "internalType": "address",
          "name": "spender",
          "type": "address"
        },
        {
          "indexed": false,
          "internalType": "uint256",
          "name": "value",
          "type": "uint256"
        }
      ],
      "name": "Approval",
      "type": "event"
    },
    {
      "anonymous": false,
      "inputs": [
        {
          "indexed": false,
          "internalType": "uint256",
          "name": "amount",
          "type": "uint256"
        },
        {
          "indexed": false,
          "internalType": "address",
          "name": "minter",
          "type": "address"
        }
      ],
      "name": "BurnedByMinter",
      "type": "event"
    },
    {
      "anonymous": false,
      "inputs": [
        {
          "indexed": false,
          "internalType": "uint256",
          "name": "amount",
          "type": "uint256"
        }
      ],
      "name": "Issue",
      "type": "event"
    },
    {
      "anonymous": false,
      "inputs": [
        {
          "indexed": false,
          "internalType": "uint256",
          "name": "amount",
          "type": "uint256"
        },
        {
          "indexed": false,
          "internalType": "address",
          "name": "minter",
          "type": "address"
        }
      ],
      "name": "MintedByMinter",
      "type": "event"
    },
    {
      "anonymous": false,
      "inputs": [
        {
          "indexed": true,
          "internalType": "address",
          "name": "minter",
          "type": "address"
        },
        {
          "indexed": false,
          "internalType": "uint256",
          "name": "minterAllowance",
          "type": "uint256"
        }
      ],
      "name": "MinterConfigured",
      "type": "event"
    },
    {
      "anonymous": false,
      "inputs": [
        {
          "indexed": true,
          "internalType": "address",
          "name": "previousOwner",
          "type": "address"
        },
        {
          "indexed": true,
          "internalType": "address",
          "name": "newOwner",
          "type": "address"
        }
      ],
      "name": "OwnershipTransferred",
      "type": "event"
    },
    {
      "anonymous": false,
      "inputs": [
        {
          "indexed": false,
          "internalType": "uint256",
          "name": "amount",
          "type": "uint256"
        }
      ],
      "name": "Redeem",
      "type": "event"
    },
    {
      "anonymous": false,
      "inputs": [
        {
          "indexed": true,
          "internalType": "address",
          "name": "from",
          "type": "address"
        },
        {
          "indexed": true,
          "internalType": "address",
          "name": "to",
          "type": "address"
        },
        {
          "indexed": false,
          "internalType": "uint256",
          "name": "value",
          "type": "uint256"
        }
      ],
      "name": "Transfer",
      "type": "event"
    },
    {
      "inputs": [],
      "name": "allMinters",
      "outputs": [
        {
          "internalType": "address[]",
          "name": "",
          "type": "address[]"
        }
      ],
      "stateMutability": "view",
      "type": "function"
    },
    {
      "inputs": [
        {
          "internalType": "address",
          "name": "owner",
          "type": "address"
        },
        {
          "internalType": "address",
          "name": "spender",
          "type": "address"
        }
      ],
      "name": "allowance",
      "outputs": [
        {
          "internalType": "uint256",
          "name": "",
          "type": "uint256"
        }
      ],
      "stateMutability": "view",
      "type": "function"
    },
    {
      "inputs": [
        {
          "internalType": "address",
          "name": "spender",
          "type": "address"
        },
        {
          "internalType": "uint256",
          "name": "amount",
          "type": "uint256"
        }
      ],
      "name": "approve",
      "outputs": [
        {
          "internalType": "bool",
          "name": "",
          "type": "bool"
        }
      ],
      "stateMutability": "nonpayable",
      "type": "function"
    },
    {
      "inputs": [
        {
          "internalType": "address",
          "name": "account",
          "type": "address"
        }
      ],
      "name": "balanceOf",
      "outputs": [
        {
          "internalType": "uint256",
          "name": "",
          "type": "uint256"
        }
      ],
      "stateMutability": "view",
      "type": "function"
    },
    {
      "inputs": [
        {
          "internalType": "address",
          "name": "account",
          "type": "address"
        },
        {
          "internalType": "uint256",
          "name": "amount",
          "type": "uint256"
        }
      ],
      "name": "burn",
      "outputs": [],
      "stateMutability": "nonpayable",
      "type": "function"
    },
    {
      "inputs": [
        {
          "internalType": "address",
          "name": "from",
          "type": "address"
        },
        {
          "internalType": "uint256",
          "name": "amount",
          "type": "uint256"
        }
      ],
      "name": "burnByMinter",
      "outputs": [],
      "stateMutability": "nonpayable",
      "type": "function"
    },
    {
      "inputs": [
        {
          "internalType": "address",
          "name": "minter",
          "type": "address"
        },
        {
          "internalType": "uint256",
          "name": "allowance",
          "type": "uint256"
        }
      ],
      "name": "configureMinter",
      "outputs": [
        {
          "internalType": "bool",
          "name": "",
          "type": "bool"
        }
      ],
      "stateMutability": "nonpayable",
      "type": "function"
    },
    {
      "inputs": [],
      "name": "decimals",
      "outputs": [
        {
          "internalType": "uint8",
          "name": "",
          "type": "uint8"
        }
      ],
      "stateMutability": "view",
      "type": "function"
    },
    {
      "inputs": [
        {
          "internalType": "address",
          "name": "spender",
          "type": "address"
        },
        {
          "internalType": "uint256",
          "name": "subtractedValue",
          "type": "uint256"
        }
      ],
      "name": "decreaseAllowance",
      "outputs": [
        {
          "internalType": "bool",
          "name": "",
          "type": "bool"
        }
      ],
      "stateMutability": "nonpayable",
      "type": "function"
    },
    {
      "inputs": [],
      "name": "disableAllMinters",
      "outputs": [
        {
          "internalType": "bool",
          "name": "success",
          "type": "bool"
        }
      ],
      "stateMutability": "nonpayable",
      "type": "function"
    },
    {
      "inputs": [
        {
          "internalType": "address",
          "name": "minter",
          "type": "address"
        }
      ],
      "name": "disableMinter",
      "outputs": [
        {
          "internalType": "bool",
          "name": "",
          "type": "bool"
        }
      ],
      "stateMutability": "nonpayable",
      "type": "function"
    },
    {
      "inputs": [],
      "name": "enableAllMinters",
      "outputs": [
        {
          "internalType": "bool",
          "name": "success",
          "type": "bool"
        }
      ],
      "stateMutability": "nonpayable",
      "type": "function"
    },
    {
      "inputs": [
        {
          "internalType": "address",
          "name": "minter",
          "type": "address"
        }
      ],
      "name": "enableMinter",
      "outputs": [
        {
          "internalType": "bool",
          "name": "",
          "type": "bool"
        }
      ],
      "stateMutability": "nonpayable",
      "type": "function"
    },
    {
      "inputs": [
        {
          "internalType": "address",
          "name": "",
          "type": "address"
        }
      ],
      "name": "enabledMinters",
      "outputs": [
        {
          "internalType": "bool",
          "name": "",
          "type": "bool"
        }
      ],
      "stateMutability": "view",
      "type": "function"
    },
    {
      "inputs": [
        {
          "internalType": "address",
          "name": "spender",
          "type": "address"
        },
        {
          "internalType": "uint256",
          "name": "addedValue",
          "type": "uint256"
        }
      ],
      "name": "increaseAllowance",
      "outputs": [
        {
          "internalType": "bool",
          "name": "",
          "type": "bool"
        }
      ],
      "stateMutability": "nonpayable",
      "type": "function"
    },
    {
      "inputs": [
        {
          "internalType": "address",
          "name": "",
          "type": "address"
        }
      ],
      "name": "initialAllowance",
      "outputs": [
        {
          "internalType": "uint256",
          "name": "",
          "type": "uint256"
        }
      ],
      "stateMutability": "view",
      "type": "function"
    },
    {
      "inputs": [],
      "name": "initialSupply",
      "outputs": [
        {
          "internalType": "uint256",
          "name": "",
          "type": "uint256"
        }
      ],
      "stateMutability": "view",
      "type": "function"
    },
    {
      "inputs": [
        {
          "internalType": "address",
          "name": "minter",
          "type": "address"
        }
      ],
      "name": "isMinter",
      "outputs": [
        {
          "internalType": "bool",
          "name": "",
          "type": "bool"
        }
      ],
      "stateMutability": "view",
      "type": "function"
    },
    {
      "inputs": [
        {
          "internalType": "address",
          "name": "account",
          "type": "address"
        },
        {
          "internalType": "uint256",
          "name": "amount",
          "type": "uint256"
        }
      ],
      "name": "mint",
      "outputs": [],
      "stateMutability": "nonpayable",
      "type": "function"
    },
    {
      "inputs": [
        {
          "internalType": "address",
          "name": "to",
          "type": "address"
        },
        {
          "internalType": "uint256",
          "name": "amount",
          "type": "uint256"
        }
      ],
      "name": "mintByMinter",
      "outputs": [],
      "stateMutability": "nonpayable",
      "type": "function"
    },
    {
      "inputs": [
        {
          "internalType": "uint256",
          "name": "",
          "type": "uint256"
        }
      ],
      "name": "minterAddresses",
      "outputs": [
        {
          "internalType": "address",
          "name": "",
          "type": "address"
        }
      ],
      "stateMutability": "view",
      "type": "function"
    },
    {
      "inputs": [
        {
          "internalType": "address",
          "name": "",
          "type": "address"
        }
      ],
      "name": "minterAllowance",
      "outputs": [
        {
          "internalType": "uint256",
          "name": "",
          "type": "uint256"
        }
      ],
      "stateMutability": "view",
      "type": "function"
    },
    {
      "inputs": [
        {
          "internalType": "address",
          "name": "",
          "type": "address"
        }
      ],
      "name": "minters",
      "outputs": [
        {
          "internalType": "bool",
          "name": "",
          "type": "bool"
        }
      ],
      "stateMutability": "view",
      "type": "function"
    },
    {
      "inputs": [],
      "name": "name",
      "outputs": [
        {
          "internalType": "string",
          "name": "",
          "type": "string"
        }
      ],
      "stateMutability": "view",
      "type": "function"
    },
    {
      "inputs": [],
      "name": "oneBipOfTotalSupply",
      "outputs": [
        {
          "internalType": "uint256",
          "name": "",
          "type": "uint256"
        }
      ],
      "stateMutability": "view",
      "type": "function"
    },
    {
      "inputs": [],
      "name": "owner",
      "outputs": [
        {
          "internalType": "address",
          "name": "",
          "type": "address"
        }
      ],
      "stateMutability": "view",
      "type": "function"
    },
    {
      "inputs": [],
      "name": "remainingSupply",
      "outputs": [
        {
          "internalType": "uint256",
          "name": "",
          "type": "uint256"
        }
      ],
      "stateMutability": "view",
      "type": "function"
    },
    {
      "inputs": [
        {
          "internalType": "address",
          "name": "minter",
          "type": "address"
        }
      ],
      "name": "removeMinter",
      "outputs": [
        {
          "internalType": "bool",
          "name": "",
          "type": "bool"
        }
      ],
      "stateMutability": "nonpayable",
      "type": "function"
    },
    {
      "inputs": [],
      "name": "renounceOwnership",
      "outputs": [],
      "stateMutability": "nonpayable",
      "type": "function"
    },
    {
      "inputs": [
        {
          "internalType": "address",
          "name": "tokenAddress",
          "type": "address"
        },
        {
          "internalType": "address",
          "name": "to",
          "type": "address"
        }
      ],
      "name": "rescueERC20",
      "outputs": [
        {
          "internalType": "bool",
          "name": "",
          "type": "bool"
        }
      ],
      "stateMutability": "nonpayable",
      "type": "function"
    },
    {
      "inputs": [],
      "name": "supplyLimit",
      "outputs": [
        {
          "internalType": "uint256",
          "name": "",
          "type": "uint256"
        }
      ],
      "stateMutability": "view",
      "type": "function"
    },
    {
      "inputs": [],
      "name": "symbol",
      "outputs": [
        {
          "internalType": "string",
          "name": "",
          "type": "string"
        }
      ],
      "stateMutability": "view",
      "type": "function"
    },
    {
      "inputs": [],
      "name": "totalSupply",
      "outputs": [
        {
          "internalType": "uint256",
          "name": "",
          "type": "uint256"
        }
      ],
      "stateMutability": "view",
      "type": "function"
    },
    {
      "inputs": [
        {
          "internalType": "address",
          "name": "to",
          "type": "address"
        },
        {
          "internalType": "uint256",
          "name": "amount",
          "type": "uint256"
        }
      ],
      "name": "transfer",
      "outputs": [
        {
          "internalType": "bool",
          "name": "",
          "type": "bool"
        }
      ],
      "stateMutability": "nonpayable",
      "type": "function"
    },
    {
      "inputs": [
        {
          "internalType": "address",
          "name": "from",
          "type": "address"
        },
        {
          "internalType": "address",
          "name": "to",
          "type": "address"
        },
        {
          "internalType": "uint256",
          "name": "amount",
          "type": "uint256"
        }
      ],
      "name": "transferFrom",
      "outputs": [
        {
          "internalType": "bool",
          "name": "",
          "type": "bool"
        }
      ],
      "stateMutability": "nonpayable",
      "type": "function"
    },
    {
      "inputs": [
        {
          "internalType": "address",
          "name": "newOwner",
          "type": "address"
        }
      ],
      "name": "transferOwnership",
      "outputs": [],
      "stateMutability": "nonpayable",
      "type": "function"
    }
  ],
  "bytecode": {
    "object": "0x60806040523480156200001157600080fd5b5060405162002287380380620022878339810160408190526200003491620001eb565b604051806040016040528060028152602001615a6960f01b815250604051806040016040528060028152602001615a4960f01b81525081600390816200007b9190620002b4565b5060046200008a8282620002b4565b505050620000a7620000a1620000ca60201b60201c565b620000ce565b600160065560078290556008819055620000c2338362000120565b5050620003a8565b3390565b600580546001600160a01b038381166001600160a01b0319831681179093556040519116919082907f8be0079c531659141344cd1fd0a4f28419497f9722a3daafe3b4186f6b6457e090600090a35050565b6001600160a01b0382166200017b5760405162461bcd60e51b815260206004820152601f60248201527f45524332303a206d696e7420746f20746865207a65726f206164647265737300604482015260640160405180910390fd5b80600260008282546200018f919062000380565b90915550506001600160a01b038216600081815260208181526040808320805486019055518481527fddf252ad1be2c89b69c2b068fc378daa952ba7f163c4a11628f55a4df523b3ef910160405180910390a35050565b505050565b60008060408385031215620001ff57600080fd5b505080516020909101519092909150565b634e487b7160e01b600052604160045260246000fd5b600181811c908216806200023b57607f821691505b6020821081036200025c57634e487b7160e01b600052602260045260246000fd5b50919050565b601f821115620001e657600081815260208120601f850160051c810160208610156200028b5750805b601f850160051c820191505b81811015620002ac5782815560010162000297565b505050505050565b81516001600160401b03811115620002d057620002d062000210565b620002e881620002e1845462000226565b8462000262565b602080601f831160018114620003205760008415620003075750858301515b600019600386901b1c1916600185901b178555620002ac565b600085815260208120601f198616915b82811015620003515788860151825594840194600190910190840162000330565b5085821015620003705787850151600019600388901b60f8161c191681555b5050505050600190811b01905550565b80820180821115620003a257634e487b7160e01b600052601160045260246000fd5b92915050565b611ecf80620003b86000396000f3fe608060405234801561001057600080fd5b506004361061021b5760003560e01c80635d799f8711610125578063a6af28c9116100ad578063c5330bf81161007c578063c5330bf814610481578063da0239a6146104a1578063dd62ed3e146104a9578063f2fde38b146104bc578063f46eccc4146104cf57600080fd5b8063a6af28c91461043e578063a9059cbb14610446578063aa271e1a14610459578063b302e0a71461046c57600080fd5b80638c37e6cd116100f45780638c37e6cd146103f75780638da5cb5b146103ff57806395d89b41146104105780639dc29fac14610418578063a457c2d71461042b57600080fd5b80635d799f871461039357806370a08231146103a6578063715018a6146103cf5780638a6db9c3146103d757600080fd5b80633092afd5116101a85780634031bc4e116101775780634031bc4e1461033f57806340c10f191461034757806347d5b4581461035a5780634e44d9561461036d57806352491d771461038057600080fd5b80633092afd514610301578063313ce56714610314578063378dc3dc14610323578063395093511461032c57600080fd5b806318160ddd116101ef57806318160ddd146102ab57806319d1997a146102bd57806321a5ceee146102c657806323b872dd146102d957806329442525146102ec57600080fd5b80620584d214610220578063028850971461025857806306fdde0314610283578063095ea7b314610298575b600080fd5b61024361022e366004611c19565b600d6020526000908152604090205460ff1681565b60405190151581526020015b60405180910390f35b61026b610266366004611c34565b6104f2565b6040516001600160a01b03909116815260200161024f565b61028b61051c565b60405161024f9190611c4d565b6102436102a6366004611c9b565b6105ae565b6002545b60405190815260200161024f565b6102af60085481565b6102436102d4366004611c19565b6105c8565b6102436102e7366004611cc5565b61064e565b6102ff6102fa366004611c9b565b610672565b005b61024361030f366004611c19565b61080b565b6040516012815260200161024f565b6102af60075481565b61024361033a366004611c9b565b610a84565b610243610aa6565b6102ff610355366004611c9b565b610b6d565b610243610368366004611c19565b610bf3565b61024361037b366004611c9b565b610c76565b6102ff61038e366004611c9b565b610e01565b6102436103a1366004611d01565b6110b9565b6102af6103b4366004611c19565b6001600160a01b031660009081526020819052604090205490565b6102ff6111b0565b6102af6103e5366004611c19565b600b6020526000908152604090205481565b6102436111c4565b6005546001600160a01b031661026b565b61028b611288565b6102ff610426366004611c9b565b611297565b610243610439366004611c9b565b61137b565b6102af6113f6565b610243610454366004611c9b565b611412565b610243610467366004611c19565b611420565b610474611489565b60405161024f9190611d34565b6102af61048f366004611c19565b600c6020526000908152604090205481565b6102af6114ea565b6102af6104b7366004611d01565b611502565b6102ff6104ca366004611c19565b61152d565b6102436104dd366004611c19565b600a6020526000908152604090205460ff1681565b6009818154811061050257600080fd5b6000918252602090912001546001600160a01b0316905081565b60606003805461052b90611d81565b80601f016020809104026020016040519081016040528092919081815260200182805461055790611d81565b80156105a45780601f10610579576101008083540402835291602001916105a4565b820191906000526020600020905b81548152906001019060200180831161058757829003601f168201915b5050505050905090565b6000336105bc8185856115a6565b60019150505b92915050565b60006105d26116cb565b6105db82611420565b6106275760405162461bcd60e51b815260206004820152601860248201527741646472657373206973206e6f742061206d696e7465722160401b60448201526064015b60405180910390fd5b506001600160a01b0381166000908152600d60205260408120805460ff191690555b919050565b60003361065c858285611725565b61066785858561179f565b506001949350505050565b61067a611943565b336000818152600d602052604090205460ff166106ce5760405162461bcd60e51b8152602060048201526012602482015271135a5b9d195c881b9bdd08195b98589b195960721b604482015260640161061e565b336000908152600a602052604090205460ff166107255760405162461bcd60e51b8152602060048201526015602482015274139bdd081bdb881d1a1948185b1b1bddc81b1a5cdd605a1b604482015260640161061e565b8161072f60025490565b101561073a57600080fd5b8161075a846001600160a01b031660009081526020819052604090205490565b101561076557600080fd5b336000908152600b602052604090205461077f848461199c565b336000908152600c60205260408120549061079a8386611ac6565b9050818111156107b757336000908152600b602052604090208290555b604080518681526001600160a01b03881660208201527f7083ba3b497feec3a0cbd87eba92fea5320a9e302b45709c1952df267b2f746391015b60405180910390a1505050506108076001600655565b5050565b60006108156116cb565b6001600160a01b03821661085b5760405162461bcd60e51b815260206004820152600d60248201526c5a65726f20616464726573732160981b604482015260640161061e565b6005546001600160a01b03166001600160a01b0316826001600160a01b0316036108c75760405162461bcd60e51b815260206004820152601c60248201527f596f752063616e6e6f742072656d6f766520746865206f776e65722100000000604482015260640161061e565b6108d082611420565b61092d5760405162461bcd60e51b815260206004820152602860248201527f41646472657373206e6f74206f6e206c697374206f66206d696e746572206164604482015267647265737365732160c01b606482015260840161061e565b6001600160a01b0382166000908152600a60209081526040808320805460ff19908116909155600b8352818420849055600c8352818420849055600d9092528220805490911690555b600954811015610a7b57826001600160a01b03166009828154811061099d5761099d611dbb565b6000918252602090912001546001600160a01b031603610a6957600980546109c790600190611de7565b815481106109d7576109d7611dbb565b600091825260209091200154600980546001600160a01b039092169183908110610a0357610a03611dbb565b9060005260206000200160006101000a8154816001600160a01b0302191690836001600160a01b031602179055506009805480610a4257610a42611dfa565b600082815260209020810160001990810180546001600160a01b0319169055019055610a7b565b80610a7381611e10565b915050610976565b50600192915050565b6000336105bc818585610a978383611502565b610aa19190611e29565b6115a6565b6000610ab06116cb565b50600160005b600954811015610b69576001600d600060098481548110610ad957610ad9611dbb565b6000918252602080832091909101546001600160a01b031683528201929092526040019020805460ff1916911515919091179055818015610b555750600d600060098381548110610b2c57610b2c611dbb565b60009182526020808320909101546001600160a01b0316835282019290925260400190205460ff165b915080610b6181611e10565b915050610ab6565b5090565b610b75611943565b610b7d6116cb565b600081610b8960025490565b610b939190611e29565b9050600854811115610bde5760405162461bcd60e51b8152602060048201526014602482015273121a5d1d1a5b99c81cdd5c1c1b1e481b1a5b5a5d60621b604482015260640161061e565b610be88383611ad9565b506108076001600655565b6000610bfd6116cb565b610c0682611420565b610c4d5760405162461bcd60e51b815260206004820152601860248201527741646472657373206973206e6f742061206d696e7465722160401b604482015260640161061e565b506001600160a01b03166000908152600d60205260409020805460ff1916600190811790915590565b6000610c806116cb565b6005546001600160a01b03166001600160a01b0316836001600160a01b031603610cec5760405162461bcd60e51b815260206004820152601960248201527f596f752063616e6e6f742061646420746865206f776e65722100000000000000604482015260640161061e565b610cf46114ea565b821115610d3a5760405162461bcd60e51b8152602060048201526014602482015273616c6c6f77616e636520697320746f6f2062696760601b604482015260640161061e565b6001600160a01b0383166000818152600a602090815260408083208054600160ff199182168117909255600d8452828520805490911682179055600b8352818420879055600c83528184208790556009805491820181559093527f6e1540171b6c0c960b71a7020d9f60077f6af931a8bbf590da0223dacf75c7af90920180546001600160a01b0319168417905590518481527f46980fca912ef9bcdbd36877427b6b90e860769f604e89c0e67720cece530d20910160405180910390a250600192915050565b610e09611943565b336000818152600d602052604090205460ff16610e5d5760405162461bcd60e51b8152602060048201526012602482015271135a5b9d195c881b9bdd08195b98589b195960721b604482015260640161061e565b336000908152600a602052604090205460ff16610eb45760405162461bcd60e51b8152602060048201526015602482015274139bdd081bdb881d1a1948185b1b1bddc81b1a5cdd605a1b604482015260640161061e565b600082610ec060025490565b610eca9190611e29565b9050600854811115610f155760405162461bcd60e51b8152602060048201526014602482015273121a5d1d1a5b99c81cdd5c1c1b1e481b1a5b5a5d60621b604482015260640161061e565b336000908152600b602052604090205483811015610f6e5760405162461bcd60e51b8152602060048201526016602482015275496e73756666696369656e7420616c6c6f77616e636560501b604482015260640161061e565b600254610f7d85825b90611ac6565b11610fda5760405162461bcd60e51b815260206004820152602760248201527f69737375696e67206e6567617469766520616d6f756e7420746f20746f74616c60448201526620737570706c7960c81b606482015260840161061e565b6001600160a01b038516600090815260208190526040902054610ffd8582610f77565b1161104a5760405162461bcd60e51b815260206004820181905260248201527f69737375696e67206e6567617469766520616d6f756e7420746f206f776e6572604482015260640161061e565b6110548585611ad9565b60006110608286611b98565b336000908152600b602052604090819020829055519091507ffc1ebd3c32a78077819284e18347c81e3871c724530d32affebb831658c17d39906107f190879089909182526001600160a01b0316602082015260400190565b60006110c36116cb565b6040516370a0823160e01b81523060048201526000906001600160a01b038516906370a0823190602401602060405180830381865afa15801561110a573d6000803e3d6000fd5b505050506040513d601f19601f8201168201806040525081019061112e9190611e3c565b60405163a9059cbb60e01b81526001600160a01b0385811660048301526024820183905291925060009186169063a9059cbb906044016020604051808303816000875af1158015611183573d6000803e3d6000fd5b505050506040513d601f19601f820116820180604052508101906111a79190611e55565b95945050505050565b6111b86116cb565b6111c26000611ba4565b565b60006111ce6116cb565b50600160005b600954811015610b69576000600d6000600984815481106111f7576111f7611dbb565b6000918252602080832091909101546001600160a01b031683528201929092526040019020805460ff19169115159190911790558180156112745750600d60006009838154811061124a5761124a611dbb565b60009182526020808320909101546001600160a01b0316835282019290925260400190205460ff16155b91508061128081611e10565b9150506111d4565b60606004805461052b90611d81565b61129f611943565b6112a76116cb565b6001600160a01b03821633146112ff5760405162461bcd60e51b815260206004820152601e60248201527f4275726e696e67206f746865722070656f706c65277320746f6b656e73210000604482015260640161061e565b60008161130b60025490565b6113159190611de7565b9050600081116113715760405162461bcd60e51b815260206004820152602160248201527f596f752063616e6e6f74206275726e2074686520656e7469726520737570706c6044820152607960f81b606482015260840161061e565b610be8838361199c565b600033816113898286611502565b9050838110156113e95760405162461bcd60e51b815260206004820152602560248201527f45524332303a2064656372656173656420616c6c6f77616e63652062656c6f77604482015264207a65726f60d81b606482015260840161061e565b61066782868684036115a6565b600061140d61271061140760025490565b90611bf6565b905090565b6000336105bc81858561179f565b6000805b60095481101561148057826001600160a01b03166009828154811061144b5761144b611dbb565b6000918252602090912001546001600160a01b03160361146e5750600192915050565b8061147881611e10565b915050611424565b50600092915050565b606060098054806020026020016040519081016040528092919081815260200182805480156105a457602002820191906000526020600020905b81546001600160a01b031681526001909101906020018083116114c3575050505050905090565b60006114f560025490565b60085461140d9190611de7565b6001600160a01b03918216600090815260016020908152604080832093909416825291909152205490565b6115356116cb565b6001600160a01b03811661159a5760405162461bcd60e51b815260206004820152602660248201527f4f776e61626c653a206e6577206f776e657220697320746865207a65726f206160448201526564647265737360d01b606482015260840161061e565b6115a381611ba4565b50565b6001600160a01b0383166116085760405162461bcd60e51b8152602060048201526024808201527f45524332303a20617070726f76652066726f6d20746865207a65726f206164646044820152637265737360e01b606482015260840161061e565b6001600160a01b0382166116695760405162461bcd60e51b815260206004820152602260248201527f45524332303a20617070726f766520746f20746865207a65726f206164647265604482015261737360f01b606482015260840161061e565b6001600160a01b0383811660008181526001602090815260408083209487168084529482529182902085905590518481527f8c5be1e5ebec7d5bd14f71427d1e84f3dd0314c0f7b2291e5b200ac8c7c3b92591015b60405180910390a3505050565b6005546001600160a01b031633146111c25760405162461bcd60e51b815260206004820181905260248201527f4f776e61626c653a2063616c6c6572206973206e6f7420746865206f776e6572604482015260640161061e565b60006117318484611502565b90506000198114611799578181101561178c5760405162461bcd60e51b815260206004820152601d60248201527f45524332303a20696e73756666696369656e7420616c6c6f77616e6365000000604482015260640161061e565b61179984848484036115a6565b50505050565b6001600160a01b0383166118035760405162461bcd60e51b815260206004820152602560248201527f45524332303a207472616e736665722066726f6d20746865207a65726f206164604482015264647265737360d81b606482015260840161061e565b6001600160a01b0382166118655760405162461bcd60e51b815260206004820152602360248201527f45524332303a207472616e7366657220746f20746865207a65726f206164647260448201526265737360e81b606482015260840161061e565b6001600160a01b038316600090815260208190526040902054818110156118dd5760405162461bcd60e51b815260206004820152602660248201527f45524332303a207472616e7366657220616d6f756e7420657863656564732062604482015265616c616e636560d01b606482015260840161061e565b6001600160a01b03848116600081815260208181526040808320878703905593871680835291849020805487019055925185815290927fddf252ad1be2c89b69c2b068fc378daa952ba7f163c4a11628f55a4df523b3ef910160405180910390a3611799565b6002600654036119955760405162461bcd60e51b815260206004820152601f60248201527f5265656e7472616e637947756172643a207265656e7472616e742063616c6c00604482015260640161061e565b6002600655565b6001600160a01b0382166119fc5760405162461bcd60e51b815260206004820152602160248201527f45524332303a206275726e2066726f6d20746865207a65726f206164647265736044820152607360f81b606482015260840161061e565b6001600160a01b03821660009081526020819052604090205481811015611a705760405162461bcd60e51b815260206004820152602260248201527f45524332303a206275726e20616d6f756e7420657863656564732062616c616e604482015261636560f01b606482015260840161061e565b6001600160a01b0383166000818152602081815260408083208686039055600280548790039055518581529192917fddf252ad1be2c89b69c2b068fc378daa952ba7f163c4a11628f55a4df523b3ef91016116be565b6000611ad28284611e29565b9392505050565b6001600160a01b038216611b2f5760405162461bcd60e51b815260206004820152601f60248201527f45524332303a206d696e7420746f20746865207a65726f206164647265737300604482015260640161061e565b8060026000828254611b419190611e29565b90915550506001600160a01b038216600081815260208181526040808320805486019055518481527fddf252ad1be2c89b69c2b068fc378daa952ba7f163c4a11628f55a4df523b3ef910160405180910390a35050565b6000611ad28284611de7565b600580546001600160a01b038381166001600160a01b0319831681179093556040519116919082907f8be0079c531659141344cd1fd0a4f28419497f9722a3daafe3b4186f6b6457e090600090a35050565b6000611ad28284611e77565b80356001600160a01b038116811461064957600080fd5b600060208284031215611c2b57600080fd5b611ad282611c02565b600060208284031215611c4657600080fd5b5035919050565b600060208083528351808285015260005b81811015611c7a57858101830151858201604001528201611c5e565b506000604082860101526040601f19601f8301168501019250505092915050565b60008060408385031215611cae57600080fd5b611cb783611c02565b946020939093013593505050565b600080600060608486031215611cda57600080fd5b611ce384611c02565b9250611cf160208501611c02565b9150604084013590509250925092565b60008060408385031215611d1457600080fd5b611d1d83611c02565b9150611d2b60208401611c02565b90509250929050565b6020808252825182820181905260009190848201906040850190845b81811015611d755783516001600160a01b031683529284019291840191600101611d50565b50909695505050505050565b600181811c90821680611d9557607f821691505b602082108103611db557634e487b7160e01b600052602260045260246000fd5b50919050565b634e487b7160e01b600052603260045260246000fd5b634e487b7160e01b600052601160045260246000fd5b818103818111156105c2576105c2611dd1565b634e487b7160e01b600052603160045260246000fd5b600060018201611e2257611e22611dd1565b5060010190565b808201808211156105c2576105c2611dd1565b600060208284031215611e4e57600080fd5b5051919050565b600060208284031215611e6757600080fd5b81518015158114611ad257600080fd5b600082611e9457634e487b7160e01b600052601260045260246000fd5b50049056fea2646970667358221220f5b6b68a500ffab4c047eb4025caad7fedbbd6279ef53d8a5e598c6f12bd2fcd64736f6c63430008130033",
    "linkReferences": {}
  },
  "methodIdentifiers": {
    "allMinters()": "b302e0a7",
    "allowance(address,address)": "dd62ed3e",
    "approve(address,uint256)": "095ea7b3",
    "balanceOf(address)": "70a08231",
    "burn(address,uint256)": "9dc29fac",
    "burnByMinter(address,uint256)": "29442525",
    "configureMinter(address,uint256)": "4e44d956",
    "decimals()": "313ce567",
    "decreaseAllowance(address,uint256)": "a457c2d7",
    "disableAllMinters()": "8c37e6cd",
    "disableMinter(address)": "21a5ceee",
    "enableAllMinters()": "4031bc4e",
    "enableMinter(address)": "47d5b458",
    "enabledMinters(address)": "000584d2",
    "increaseAllowance(address,uint256)": "39509351",
    "initialAllowance(address)": "c5330bf8",
    "initialSupply()": "378dc3dc",
    "isMinter(address)": "aa271e1a",
    "mint(address,uint256)": "40c10f19",
    "mintByMinter(address,uint256)": "52491d77",
    "minterAddresses(uint256)": "02885097",
    "minterAllowance(address)": "8a6db9c3",
    "minters(address)": "f46eccc4",
    "name()": "06fdde03",
    "oneBipOfTotalSupply()": "a6af28c9",
    "owner()": "8da5cb5b",
    "remainingSupply()": "da0239a6",
    "removeMinter(address)": "3092afd5",
    "renounceOwnership()": "715018a6",
    "rescueERC20(address,address)": "5d799f87",
    "supplyLimit()": "19d1997a",
    "symbol()": "95d89b41",
    "totalSupply()": "18160ddd",
    "transfer(address,uint256)": "a9059cbb",
    "transferFrom(address,address,uint256)": "23b872dd",
    "transferOwnership(address)": "f2fde38b"
  },
  "id": 60
}